:100000000C942A000C943C000C943C000C943C0092
:100010000C943C000C943C000C943C000C943C0070
:100020000C943C000C943C000C943C000C945D003F
:100030000C943C000C943C000C943C000C943C0050
:100040000C943C000C943C000C943C000C943C0040
:100050000C943C0011241FBECFE5D8E0DEBFCDBF1D
:1000600020E0A0E6B0E001C01D92A436B207E1F79F
:100070000E9492000C94A7000C94000080916200F2
:10008000909163008230910589F020F4019799F4F2
:1000900089E00FC08330910559F0049761F483E043
:1000A0008BBB109263001092620008958CE001C037
:1000B00086E08BBB08951BBA08951F920F920FB66E
:1000C0000F9211242F933F934F935F936F937F93DE
:1000D0008F939F93AF93BF93EF93FF9380916200B1
:1000E0009091630001968430910528F49093630009
:1000F0008093620004C010926300109262000E941C
:100100003E00FF91EF91BF91AF919F918F917F91B1
:100110006F915F914F913F912F910F900FBE0F9074
:100120001F90189583B7856083BF12BEA2988FE099
:100130008ABB1BBAAA9A81E089BF85E083BF789405
:1001400095E081E09A99FECF93BF89BFFBCFF894E9
:02015000FFCFDF
:00000001FF
