:100000000C942A000C943C000C943C000C943C0092
:100010000C943C000C943C000C943C000C943C0070
:100020000C943C000C943C000C943C000C943C0060
:100030000C943C000C943C000C943C000C943C0050
:100040000C943C000C943C000C943C000C943C0040
:100050000C943C0011241FBECFE5D8E0DEBFCDBF1D
:1000600020E0A0E6B0E001C01D92A236B207E1F7A1
:100070000E945D000C9487000C9400008091600049
:10008000909161008230910589F020F4019799F4F4
:1000900084E00FC08330910559F0049761F482E049
:1000A0008BBB109261001092600008958DE001C03A
:1000B0008BE08BBB08951BBA089583B7856083BF1F
:1000C00012BE83E084BB8FE08ABB1BBA81E089BF8C
:1000D00085E083BF789495E026E03AE089E043B379
:1000E0004330E9F742B7453010F09BBB12BE42B730
:1000F000453010F02BBB12BE42B7453010F03BBB71
:1001000012BE42B7453058F38BBB12BEE8CFF8940D
:02011000FFCF1F
:00000001FF
