:060000000C942F000C948B
:1000060000000C9400000C9400000C9400000C946A
:1000160000000C9400000C9400000C9400000C945A
:1000260000000C9400000C9400000C9400000C944A
:1000360000000C9400000C9400000C9400000C943A
:1000460000000C9400000C9400000C94000080C08A
:100056000200600254000000F894EE27ECBBF1E0C9
:10006600FBBFEBBFE5BF8DE0A2E0BB27ED938A9512
:10007600E9F780E098E0A0E6ED930197E9F7E6E579
:10008600F0E085919591009761F0A591B591059065
:100096001590BF01F00105900D920197E1F7FB0164
:1000A600F0CFEFE5EDBFE8E0EEBFC0E6D2E00C949E
:1000B6005C00E4E0EABBE0E0EBBBE7BBE8BBEFEFEC
:1000C600E4BBE0E0E5BBE1BBE2BBE3BFE2BFECBF04
:1000D600EFBDEEBDEDBDECBDE7BDE6BDEBBDEABDDA
:1000E600E9BDE8BDE2BDE5BDE4BDE3BDE9BFE5BFF1
:1000F600E4BFEAB9E0E8E8B9E0E0E0BFE6B9EDB9A7
:10010600E6BFA8E02CD0FFCFFFCFAA93E5B3EF70F0
:10011600AE2FE881E07FEA2BE5BB81E18A95F1F716
:10012600AA9A81E18A95F1F7AA9881E18A95F1F771
:100136003FC0AA93A881E9DFE881E295E883A88118
:10014600E4DF87EA8A95F1F733C0A2E033D0ACE06A
:10015600F0DFA1E02FD0E0E04E2E5E2E0895AA93A8
:10016600E4B3E06FE4BBA29AA09AA19AAA98A898D1
:10017600A9987880E881E058E0936202E881E0542B
:10018600E0936302A4E1B0E00E94E90018D017D022
:1001960016D0A0E2BADF8AEF90E00197F1F7A8E265
:1001A600C8DFA4E0C6DFA5E8C4DFA6E0C2DFCDDF76
:1001B60021960895BEDFA3E0B0E00C94E900A0E329
:1001C600A4DF8AEF90E00197F1F70895109639F0D1
:1001D60084EC99E00197F1F7A8951197C9F708956E
:00000001FF
