:100000000C942A000C943F000C943F000C943F0089
:100010000C943F000C943F000C943F000C943F0064
:100020000C943F000C943F000C943F000C943F0054
:100030000C943F000C943F000C943F000C943F0044
:100040000C943F000C943F000C943F000C943F0034
:100050000C943F0011241FBECFE5D4E0DEBFCDBF1E
:1000600010E0A0E6B0E0E2E3FCE002C005900D92F3
:10007000A637B107D9F70E94BA000C9417060C9462
:10008000000085BBC098C198C29A85E08A95F1F7B7
:100090000000C2988FED9EE20197F1F700C00000CA
:1000A000089585BBC09AC198C29A85E08A95F1F7F8
:1000B0000000C2988FE99FE00197F1F700C00000AF
:1000C00008958FEF87BB84BB2FEF89EF90E021501D
:1000D00080409040E1F700C0000088E30E944100AA
:1000E0008CE00E94410086E00E94410081E00E9475
:1000F000410080E80C944100CF93DF93EC0189919B
:10010000882319F00E945100FACFDF91CF91089512
:10011000CF93DF93EA01811106C060316CF4862F22
:100120008F70806807C0813039F460312CF4862FDD
:100130008F70806C0E944100CE01DF91CF910C94B2
:100140007C0081E00E94410080E80C94410084EA38
:1001500086B910BE089580E487B98FE39CE90197C2
:10016000F1F700C00000369A349BFECF349A84B178
:1001700095B10895CF93DF93CDB7DEB760970FB6F3
:10018000F894DEBF0FBECDBF0E9461000E94A700A1
:100190001ABA8FEDD82E9EE6E92E90E0F92E8E0148
:1001A0000F5F1F4F80E80E94410080E690E00E94B0
:1001B0007C0080E00E94AB00BC01990F880B990B7A
:1001C0000E94340226EF38E24CE950E40E94C0025B
:1001D00020E030E040E251E40E948A01D89B0CC04C
:1001E00026E636E646EE5FE30E94C00220E030E0FD
:1001F00040E052E40E941E011F92DF920E94FC0127
:100200007F936F93FF92EF921F930F930E942D03A2
:1002100080EC0E944100C8010E947C002FEF81EE1B
:1002200094E0215080409040E1F700C000000FB6FC
:10023000F894DEBF0FBECDBFB5CF5058BB27AA275D
:100240000E9435010C9486020E94780238F00E94C8
:100250007F0220F039F49F3F19F426F40C947502C4
:100260000EF4E095E7FB0C946F02E92F0E949702D1
:1002700058F3BA17620773078407950720F079F4DB
:10028000A6F50C94B9020EF4E0950B2EBA2FA02D12
:100290000B01B90190010C01CA01A0011124FF2733
:1002A000591B99F0593F50F4503E68F11A16F0402E
:1002B000A22F232F342F4427585FF3CF469537952D
:1002C0002795A795F0405395C9F77EF41F16BA0BF2
:1002D000620B730B840BBAF09150A1F0FF0FBB1FA0
:1002E000661F771F881FC2F70EC0BA0F621F731FE9
:1002F000841F48F4879577956795B795F7959E3F46
:1003000008F0B0CF9395880F08F09927EE0F9795D6
:10031000879508950E949E010C9486020E947F0298
:1003200058F00E94780240F029F45F3F29F00C94C5
:100330006F0251110C94BA020C9475020E9497023C
:1003400068F39923B1F3552391F3951B550BBB2704
:10035000AA2762177307840738F09F5F5F4F220F49
:10036000331F441FAA1FA9F335D00E2E3AF0E0E840
:1003700032D091505040E695001CCAF72BD0FE2F8A
:1003800029D0660F771F881FBB1F2617370748071E
:10039000AB07B0E809F0BB0B802DBF01FF279358D6
:1003A0005F4F3AF09E3F510578F00C946F020C9429
:1003B000BA025F3FE4F3983ED4F38695779567954C
:1003C000B795F7959F5FC9F7880F911D969587950B
:1003D00097F90895E1E0660F771F881FBB1F62172A
:1003E00073078407BA0720F0621B730B840BBA0BE8
:1003F000EE1F88F7E09508950E9403026894B111FA
:100400000C94BA0208950E949F0288F09F5798F0BA
:10041000B92F9927B751B0F0E1F0660F771F881F09
:10042000991F1AF0BA95C9F714C0B13091F00E9423
:10043000B902B1E008950C94B902672F782F88278C
:10044000B85F39F0B93FCCF3869577956795B3954A
:10045000D9F73EF490958095709561957F4F8F4FB9
:100460009F4F0895E89409C097FB3EF490958095BE
:10047000709561957F4F8F4F9F4F9923A9F0F92F6A
:1004800096E9BB279395F695879577956795B795E8
:10049000F111F8CFFAF4BB0F11F460FF1BC06F5FCE
:1004A0007F4F8F4F9F4F16C0882311F096E911C0E0
:1004B000772321F09EE8872F762F05C0662371F001
:1004C00096E8862F70E060E02AF09A95660F771F15
:1004D000881FDAF7880F9695879597F9089597F909
:1004E0009F6780E870E060E008959FEF80EC0895DA
:1004F00000240A9416161706180609060895002403
:100500000A9412161306140605060895092E03947C
:10051000000C11F4882352F0BB0F40F4BF2B11F4F0
:1005200060FF04C06F5F7F4F8F4F9F4F089557FD4F
:100530009058440F551F59F05F3F71F04795880F51
:1005400097FB991F61F09F3F79F0879508951216E8
:1005500013061406551FF2CF4695F1DF08C0161694
:1005600017061806991FF1CF869571056105089445
:100570000895E894BB2766277727CB0197F908955C
:100580000E94D3020C9486020E94780238F00E94E6
:100590007F0220F0952311F00C946F020C947502E9
:1005A00011240C94BA020E94970270F3959FC1F334
:1005B000950F50E0551F629FF001729FBB27F00D11
:1005C000B11D639FAA27F00DB11DAA1F649F662766
:1005D000B00DA11D661F829F2227B00DA11D621FB5
:1005E000739FB00DA11D621F839FA00D611D221F6F
:1005F000749F3327A00D611D231F849F600D211D53
:10060000822F762F6A2F11249F5750409AF0F1F0D5
:1006100088234AF0EE0FFF1FBB1F661F771F881F3E
:1006200091505040A9F79E3F510580F00C946F0205
:100630000C94BA025F3FE4F3983ED4F38695779525
:100640006795B795F795E7959F5FC1F7FE2B880FE4
:10065000911D9695879597F90895AEE0B0E0E3E394
:10066000F3E00C94EE050D891E8986E08C831A83D5
:1006700009838FEF9FE79E838D83AE01475E5F4FB7
:100680006F89788DCE0101960E944F03EF81F88526
:10069000E00FF11F10822E96E4E00C940A06ABE006
:1006A000B0E0E5E5F3E00C94E0056C017B018A0124
:1006B000FC0117821682838181FFCCC1CE01019695
:1006C0003C01F6019381F70193FD859193FF8191A0
:1006D0007F01882309F4BAC1853239F493FD8591ED
:1006E00093FF81917F01853229F4B60190E00E9449
:1006F0004605E7CF912C212C312CFFE1F315D8F0E2
:100700008B3279F038F4803279F08332A1F4232DE2
:1007100020611DC08D3261F0803369F4232D21608A
:1007200016C0832D8260382EE32DE4603E2E2AC051
:10073000F32DF8601DC037FC2DC020ED280F2A30A6
:1007400040F08E32B9F436FC81C1232D2064322E64
:1007500019C036FE06C08AE0989E200D1124922E04
:1007600011C0EAE02E9E200D1124222EF32DF062FE
:100770003F2E08C08C3621F4832D8068382E02C0AD
:10078000883641F4F70193FD859193FF81917F01B4
:100790008111B3CF982F9F7D9554933028F40C5F2F
:1007A0001F4F9FE399830DC0833631F0833771F07B
:1007B000833509F059C021C0F801808189830E5F1B
:1007C0001F4F88248394912C530113C02801F2E019
:1007D0004F0E511CF801A080B18036FE03C0692D78
:1007E00070E002C06FEF7FEFC5010E943B054C0136
:1007F0008201F32DFF773F2E16C0280122E0420E22
:10080000511CF801A080B18036FE03C0692D70E054
:1008100002C06FEF7FEFC5010E9430054C01F32D40
:10082000F0683F2E820133FC1BC0822D90E08816B9
:100830009906B0F4B60180E290E00E9446052A9441
:10084000F4CFF50137FC859137FE81915F01B60148
:1008500090E00E94460521102A9421E0821A910816
:100860008114910471F7E8C0843611F0893641F59E
:10087000F80137FE07C060817181828193810C5F2E
:100880001F4F08C060817181072E000C880B990BE7
:100890000E5F1F4FF32DFF763F2E97FF09C09095F7
:1008A0008095709561957F4F8F4F9F4FF0683F2ED9
:1008B0002AE030E0A3010E948205882E861845C0F8
:1008C000853731F4232D2F7EB22E2AE030E025C06B
:1008D000932D997FB92E8F36C1F018F4883579F0B1
:1008E000B5C0803719F0883721F0B0C0E92FE0613A
:1008F000BE2EB4FE0DC0FB2DF460BF2E09C034FE29
:100900000AC0292F2660B22E06C028E030E005C0BC
:1009100020E130E002C020E132E0F801B7FE07C07C
:1009200060817181828193810C5F1F4F06C060815D
:10093000718180E090E00E5F1F4FA3010E9482054D
:10094000882E8618FB2DFF773F2E36FE0DC0232DF7
:100950002E7FA22E891458F434FE0BC032FC09C03D
:10096000832D8E7EA82E05C0B82CA32C03C0B82CD6
:1009700001C0B92CA4FE0FC0FE01E80DF11D80815D
:10098000803321F49A2D997EA92E09C0A2FE06C0BB
:10099000B394B39404C08A2D867809F0B394A3FC71
:1009A00011C0A0FE06C0B21488F4280C922C9B182B
:1009B0000EC0B21460F4B60180E290E00E944605D9
:1009C000B394F7CFB21418F42B1802C0982C212C32
:1009D000A4FE10C0B60180E390E00E944605A2FE8E
:1009E00017C0A1FC03C088E790E002C088E590E052
:1009F000B6010CC08A2D867859F0A1FE02C08BE2A8
:100A000001C080E2A7FC8DE2B60190E00E9446059D
:100A1000891438F4B60180E390E00E9446059A9468
:100A2000F7CF8A94F301E80DF11D8081B60190E0C3
:100A30000E9446058110F5CF222009F442CEB6016E
:100A400080E290E00E9446052A94F6CFF601868166
:100A5000978102C08FEF9FEF2B96E2E10C94FC058B
:100A6000FC010590615070400110D8F78095909579
:100A70008E0F9F1F0895FC0161507040019001107E
:100A8000D8F7809590958E0F9F1F08950F931F9311
:100A9000CF93DF93FB01238121FD03C08FEF9FEFF5
:100AA0002CC022FF16C04681578124813581421710
:100AB000530744F4A081B1819D012F5F3F4F3183E3
:100AC00020838C93268137812F5F3F4F3783268386
:100AD00014C08B01EC01FB010084F185E02D099528
:100AE000892BE1F6D80116968D919C911797019666
:100AF00017969C938E931697CE01DF91CF911F91FD
:100B00000F910895FA01AA27283051F1203181F17F
:100B1000E8946F936E7F6E5F7F4F8F4F9F4FAF4F05
:100B2000B1E03ED0B4E03CD0670F781F891F9A1F18
:100B3000A11D680F791F8A1F911DA11D6A0F711DCC
:100B4000811D911DA11D20D009F468943F912AE0D8
:100B5000269F11243019305D3193DEF6CF010895C0
:100B6000462F4770405D4193B3E00FD0C9F7F6CFF1
:100B7000462F4F70405D4A3318F0495D31FD4052B9
:100B8000419302D0A9F7EACFB4E0A695979587954F
:100B900077956795BA95C9F700976105710508952E
:100BA0009B01AC010A2E06945795479537952795DA
:100BB000BA95C9F7620F731F841F951FA01D089572
:100BC0002F923F924F925F926F927F928F929F925D
:100BD000AF92BF92CF92DF92EF92FF920F931F934B
:100BE000CF93DF93CDB7DEB7CA1BDB0B0FB6F894FC
:100BF000DEBF0FBECDBF09942A88398848885F843C
:100C00006E847D848C849B84AA84B984C884DF80AC
:100C1000EE80FD800C811B81AA81B981CE0FD11D90
:100C20000FB6F894DEBF0FBECDBFED010895F89466
:020C3000FFCFF4
:100C320054656D70657261747572653A2000256441
:060C4200256320200000E4
:00000001FF
