:100000000C942A000C943F000C943F000C943F0089
:100010000C943F000C943F000C943F000C943F0064
:100020000C943F000C943F000C943F000C943F0054
:100030000C943F000C943F000C943F000C943F0044
:100040000C943F000C943F000C943F000C943F0034
:100050000C943F0011241FBECFE5D8E0DEBFCDBF1A
:1000600010E0A0E6B0E0EAEDF0E002C005900D92ED
:10007000AA36B107D9F70E9441000C946B000C948A
:100080000000CF93DF93CDB7DEB72A970FB6F89471
:10009000DEBF0FBECDBF8AB38FEF8ABB8BBB8AE0BA
:1000A000E0E6F0E0DE01119601900D928A95E1F70D
:1000B000CE010B96FE01319621912BBB2FE33DE043
:1000C00043E0215030404040E1F700C00000E81715
:0A00D000F90781F3F1CFF894FFCF98
:0A00DA00C0F9A4B0999282F880905A
:00000001FF
