:040000000C94380024
:100004000C9400000C9400000C9400000C9400006C
:100014000C9400000C9400000C9400000C9400005C
:100024000C9400000C9400000C9400000C9400004C
:100034000C9400000C9400000C9400000C9400003C
:100044000C9400000C9400000C9400000C9400002C
:1000540048656C6C6F20576F726C640080C00C0034
:100064006002540002006C0260000000F894EE2765
:10007400ECBBF1E0FBBFEBBFE5BF8DE0A2E0BB272B
:10008400ED938A95E9F780E098E0A0E6ED93019777
:10009400E9F7E2E6F0E085919591009761F0A5918A
:1000A400B59105901590BF01F00105900D9201974F
:1000B400E1F7FB01F0CFEFE5EDBFE8E0EEBFC0E60E
:1000C400D2E00C946500A4E162D0A0E6B2E04ED088
:1000D400FACFFFCFAA93E2B3EF70AE2FE881E07FAF
:1000E400EA2BE2BB8DE08A95F1F7929A8DE08A952E
:1000F400F1F792988DE08A95F1F772C0AA93A881DE
:10010400E9DFE881E295E883A881E4DF85E88A9560
:10011400F1F766C0AA93E881F0E0E459FD4FE0816D
:10012400A981AE0FEBDF5980488022960895A2E0A2
:1001340059D0ACE0E3DFA1E055D0E0E04E2E5E2ED6
:100144000895AA93A881AA3011F0571448F0E0E06A
:10015400EA934394A42DDEDFA881AA3009F440C0B9
:100164005394909AA881CADF90983AC0BA93AA93FC
:100174001A93A981BA81ED91A983BA831E2FE03025
:1001840019F0A12FDEDFF5CF188123960895AA93E5
:10019400E1B3E06FE1BB8A9A889A899A9298909821
:1001A40091987880E881E058E0936E02E881E05409
:1001B400E0936F02A4E1B0E00E94000118D017D0D0
:1001C40016D0A0E287DF88EC90E00197F1F7A8E26F
:1001D40095DFA4E093DFA5E891DFA6E08FDFA7DF3A
:1001E400219608958BDFA3E0B0E00C940001A0E316
:1001F40071DF88EC90E00197F1F70895109639F0DB
:1002040080ED97E00197F1F7A8951197C9F7089544
:00000001FF
