:100000000C942A000C943F000C943F000C943F0089
:100010000C943F000C943F000C943F000C943F0064
:100020000C943F000C943F000C943F000C943F0054
:100030000C943F000C943F000C943F000C943F0044
:100040000C943F000C943F000C943F000C943F0034
:100050000C943F0011241FBECFE5D8E0DEBFCDBF1A
:1000600010E0A0E6B0E0E6EAF1E002C005900D92F3
:10007000A437B107D9F70E9441000C94D1000C9429
:1000800000008FEF84BB81BBCAE0D0E004E610E043
:1000900078EEE72E73E0F72E47E0EBE0DE2EFDE092
:1000A000CF2EAEE0BA2E20E030E045BBC901BE0144
:1000B0000E94A900FC01EE0FFF1FE05AFF4F808154
:1000C00082BB89EF90E00197F1F700C00000D5BA3C
:1000D000CB01BE010E94A900FC01EE0FFF1FE05AF8
:1000E000FF4F808182BB89EF90E00197F1F700C05C
:1000F0000000C5BAC901B8010E94A900CB01BE0128
:100100000E94A900FC01EE0FFF1FE05AFF4F808103
:1001100082BB89EF90E00197F1F700C00000B5BA0B
:10012000C901B7010E94A900FB01EE0FFF1FE05AB1
:10013000FF4F808182BB89EF90E00197F1F700C00B
:1001400000002F5F3F4F203197E2390709F4ABCF12
:10015000ACCF97FB072E16F4009407D077FD09D09B
:100160000E94BD0007FC05D03EF4909581959F4FFD
:100170000895709561957F4F0895AA1BBB1B51E1AF
:1001800007C0AA1FBB1FA617B70710F0A61BB70B07
:10019000881F991F5A95A9F780959095BC01CD01AC
:0601A0000895F894FFCF62
:1001A600C000F900A400B000990092008200F80097
:0401B6008000900035
:00000001FF
